{
  "contractName": "Sample",
  "abi": [
    {
      "constant": true,
      "inputs": [],
      "name": "funds",
      "outputs": [
        {
          "name": "",
          "type": "uint256"
        }
      ],
      "payable": false,
      "stateMutability": "view",
      "type": "function"
    }
  ],
  "bytecode": "0x60806040526103e8600055348015601557600080fd5b506098806100246000396000f3fe6080604052600436106039576000357c010000000000000000000000000000000000000000000000000000000090048063c89f2ce414603e575b600080fd5b348015604957600080fd5b5060506066565b6040518082815260200191505060405180910390f35b6000548156fea165627a7a723058207fb21a78ec426a436bccf3d35b0465423fe3626cda0e90795b1f936a783012e00029",
  "source": "// SPDX-License-Identifier: MIT\npragma solidity >=0.4.22 <0.9.0;\n\ncontract Sample {\n  uint public funds = 1000;\n\n}",
  "sourcePath": "/Users/Ammar/Learn/blockchain/wallet-app/faucet/contracts/SampleContract.sol",
  "compiler": {
    "name": "solc",
    "version": "0.5.1+commit.c8a2cb62.Emscripten.clang"
  },
  "schemaVersion": "3.4.3",
  "updatedAt": "2021-10-21T08:08:44.476Z",
  "devdoc": {
    "methods": {}
  },
  "userdoc": {
    "methods": {}
  }
}